:1000000012EF03F0416775696C6172526F64726937
:100010006775657A00003231353836303034390052
:1000200050726163746963612034000053656E73BC
:100030006F722052657369737469766F000044694A
:100040007374616E6369613D2566636D0000EA6AE1
:10005000200EE96EEF5007E0A50E006E002EFED7D1
:100060000000EF2EF9D7120027B002D08C9601D0F5
:100070008C86959627B202D08C9801D08C88959862
:1000800027B402D08C9A01D08C8A959A27B602D0D8
:100090008C9C01D08C8C959C00008C8495940000E5
:1000A0008C9495941200286A9586000E83B6010EF2
:1000B00028129588000E83B8010E006ED890003685
:1000C00000502812958A000E83BA010E006E003689
:1000D0000036FC0E001600502812958C000E83BCD2
:1000E000010E006E003600360036F80E0016005085
:1000F000281228C001F0120095869588958A958C63
:100100008C82959200008C8495940000CCDF01C015
:1001100027F08C94959400008C849594C4DF01C0E2
:1001200026F08C94959495969598959A959C273859
:10013000006EF00E001600502610016EA6EF00F0C3
:100140009594959095928C909590D6D701C026F075
:1001500001BEFBD7245202E18C9001D08C80959097
:1001600000008C92959200008C9495942538266E10
:100170000F0E261626C027F077DF25500F0B266EB0
:10018000276E72DF1200280E136E0C0E146E010E15
:10019000156E060E166E8C9495948C9095908C929C
:1001A000959295969598959A959C959495909592FB
:1001B0000F0E206E4CDF010E126E1250030808E382
:1001C000030E276E51DF050E206E41DF122AF5D790
:1001D000020E276E49DF050E206E39DF126A1250BB
:1001E00003080DE3036A1250130FE96E000E03209B
:1001F000EA6EEFCF25F0246AA3DF122AF0D732EFA0
:1002000003F0212C01D003D0400E226E01D0226ACF
:10021000010E205C222622508009236E246A256E5E
:100220008FDF12001F50070A07E00B0A0AE0060AD8
:1002300010E0020A14E018D0010E206E216EE1DFFA
:1002400018D0246A010E256E7BDF020E206EFFDEC1
:1002500010D0010E206E020E216ED3DF0AD0246A68
:10026000100E256E6DDF05D0010E246E1FC025F027
:1002700067DF12000900F5520CE0F6CF12F0F7CF5D
:1002800013F0F5CF1FF0CEDF12C0F6FF13C0F7FF5B
:10029000F1D71200B60E006E036A026A016A1250AC
:1002A00013101410151002E1006A0DD0D89001BE91
:1002B00009D0123613361436153603360236013697
:1002C000002EF4D7019E8FEF03F01F50D8B471D0E9
:1002D000006E2350D8B46DD0002604E3810E0026B2
:1002E00068E204D07F0E005E64E363E020C027F084
:1002F0002450271A208E248E22502602F4CF29F073
:1003000021502502F4CF03F0F3CF28F02602F3505A
:100310002926F4502822000E032222502502F350F1
:100320002926F4502822000E026A032202222050BD
:100330002602F3502826F4500322000E02222050F9
:100340002502F3500326F4500222000E016A012216
:1003500022502402F3502826F4500322000E0222D9
:10036000012221502402F3500326F4500222000EF1
:10037000012220502402F3500226F4500122002AC8
:1003800001BE05D028360336023601360006000EBF
:1003900028AE0AD0032A02220122015005E10250B0
:1003A00003E1035001E1002A27BE018E27AE019E22
:1003B00004D0006A016A026A036A12000900F6CFDB
:1003C00013F0F7CF14F0F5CF1FF02CDF13C0F6FFBA
:1003D00014C0F7FF122EF2D7BBEF03F01F50B60880
:1003E0001F6E036A20C023F0208ED8902032213265
:1003F000223203320232013200321F2EF6D723AEF0
:100400000BD0001E011E021E031E002AD8B4012AB2
:10041000D8B4022AD8B4032A7CEF02F0D8B203D0B1
:10042000EA6A270EE96E006A016A026A036A276AAD
:10043000286A296A2A6A26502510241023102CE0E5
:10044000200E2B6ED8901F362036213622362736C6
:10045000283629362A3626502A5C08E12550295CA0
:1004600005E12450285C02E12350275C0FE3235070
:10047000275E2450D8A0243C285E2550D8A0253CD7
:10048000295E2650D8A0263C2A5ED8800036013648
:10049000023603362B2ED6D727C0EFFF28C0ECFF3D
:1004A00029C0ECFF2AC0ECFF1200E950176E16506D
:1004B000196E19E015C022F014C021F013C020F00D
:1004C00012C01FF0266A256A200E246E820E236E4B
:1004D000FCDE03C015F002C014F001C013F000C030
:1004E00012F0192EE7D715C022F014C021F013C066
:1004F00020F012C01FF072D703C015F002C014F034
:1005000001C013F000C012F015AE0DD01706178A07
:10051000121E131E141E151E122AD8B4132AD8B484
:10052000142AD8B4152A3B0E1E6E9A0E1D6ECA0EE2
:100530001C6E1B6A0A0E196E1650D8B4172AD88280
:10054000EA6A120EE96E15C022F014C021F013C041
:1005500020F012C01FF01EC026F01DC025F01CC0E8
:1005600024F01BC023F05ADF015000520FE116287F
:10057000195C0CE017500CE00F0B195C01E037E23E
:1005800017BE35D017BC04D0200E2DD0200E171664
:1005900017AA0CD0179A1650D8A417060050176E39
:1005A0002D0E1F6E3FDE1750006E176A1650195C35
:1005B0000AE10050176E2E0E1F6E34DE1750006ECB
:1005C000200E1716000E300E17AA0DD0179A1650CF
:1005D000D8A417060050176E2D0E1F6E23DE17507D
:1005E000006E176A300E002600C01FF01BDED89286
:1005F0001EC022F01DC021F01CC020F01BC01FF047
:10060000266A256A246A0A0E236E08DF03C01EF0DC
:1006100002C01DF001C01CF000C01BF0192E8FD7C6
:10062000C8EF03F0F86AD09E076A066A056A046A92
:100630000B6A0A6A096A086A0F6A0E6A0D6A0C6A0E
:10064000116A106AC150C00B0F09C16E070EB46E5B
:10065000C050C00B0509C06EC08EC280C150C00B17
:10066000C16E91D50C0E1F6EDDDD010E206E216E68
:10067000C8DD040EF66E000EF76EFCDD050E206E72
:10068000020E216EBEDD160EF66E000EF76EF2DD66
:100690000C0E126EFA0E206EDADC122EFBD70C0E48
:1006A0001F6EC0DD040E206E010E216EAADD200E2D
:1006B000F66E000EF76EDEDD020E206E216EA1DDFD
:1006C0002C0EF66E000EF76ED5DD0C0E126EFA0EC5
:1006D000206EBDDC122EFBD70C0E1F6EA3DD000EAC
:1006E000016EC250C30B0110C26E030E006E002ECD
:1006F000FED7C282C2B2FED7C3CF08F0C4CF09F082
:100700000A6A0B6A030E006E002EFED70BC015F0AE
:100710000AC014F009C013F008C012F0BBD503C022
:1007200007F002C006F001C005F000C004F00A0E98
:10073000226ED70E216E230E206E780E1F6E07C01C
:1007400026F006C025F005C024F004C023F0BDDD6E
:1007500003C00FF002C00EF001C00DF000C00CF09D
:10076000010E206E216E4DDD3E0EF66E000EF76E10
:100770000A0E126E23D6890EE96E0FC015F00EC058
:1007800014F00DC013F00CC012F0020E166E8DD6D0
:10079000630E1F6E47DD6D0E1F6E44DD030E006E8F
:0807A000002EFED79CD70300D8
:020000040030CA
:0E0000003FC03E1E0087A1000FC00FE00F4062
:00000001FF
;PIC18F4550
;CRC=8DE1  CREATED="08-dic-20 02:38"
